:1000000014C1000042C1000040C100003EC1000018
:100010003CC100003AC1000038C1000036C10000F8
:1000200034C1000032C1000030C100002EC1000008
:100030002CC100002AC1000028C1000026C1000018
:1000400024C1000022C1000020C100001EC1000028
:100050001CC100001AC1000018C10000AEC400009D
:1000600014C1000012C1000010C100000EC1000048
:100070000CC100000AC1000008C1000006C1000058
:1000800004C1000002C1000000C10000FEC0000069
:10009000FCC00000FAC00000F8C00000FCC4000072
:1000A000F4C00000F2C00000F0C00000EEC000008C
:1000B000ECC00000EAC00000E8C00000E6C000009C
:1000C000E4C00000E2C00000E0C00000DEC00000AC
:1000D000DCC00000DAC00000D8C00000D6C00000BC
:1000E000D4C000008C018F017E0182018801C6010D
:1000F000930197019D01A101A501AB01AF01B301DE
:10010000C601B901BD01C101000021002400270082
:100110002A002D0030003300010100000401070116
:100120000A0100002200250028002B002E003100CB
:10013000340002010000050108010B01000020004D
:100140002300260029002C002F00320000010000AF
:10015000030106010901050505050705080808084A
:10016000020202020A0A080804040404010101014F
:10017000010101010303030303030303040707074A
:100180000C0C0C0C0C0C0C0C0202020206060606EF
:10019000060606060B0B0B0B0B0B0B0B01021020BC
:1001A00020080810204010204080020102010804AD
:1001B0000201010204081020408080402010080441
:1001C000020180040201804020100804020108049A
:1001D00002010102040810204080010204081020DE
:1001E000408000000A0B02090C0D0E0807030401F1
:1001F00000000000000000000000000000000000FF
:1002000000000000000000000000000000001211CB
:1002100010000000000000000000000000000000CE
:100220000000000000000000360B11241FBECFEFBD
:10023000D1E2DEBFCDBF00E00CBF22E0A8E3B2E018
:1002400001C01D92AB3FB207E1F712E0A0E0B2E0BF
:10025000EEE9FBE100E00BBF02C007900D92A8336E
:10026000B107D9F711E0C5E1D1E000E006C0219760
:100270000109802FFE010E94A00BC431D10780E04C
:100280000807A9F7EAD60C94CD0DBACECF92DF922B
:10029000EF92FF920F931F93CF93DF936C017A013C
:1002A0008B01C0E0D0E0CE15DF0589F0D8016D915B
:1002B0008D01D601ED91FC910190F081E02DC601F8
:1002C0001995892B11F47E0102C02196ECCFC7014C
:1002D000DF91CF911F910F91FF90EF90DF90CF9022
:1002E000089590E0FC013197E231F10508F04EC02D
:1002F0008827EE58FF4F8F4F0C94A00B8091800001
:100300008F7703C0809180008F7D80938000089557
:1003100080918000877FF9CF84B58F7702C084B544
:100320008F7D84BD08958091B0008F7703C0809148
:10033000B0008F7D8093B0000895809190008F77FA
:1003400007C0809190008F7D03C080919000877FCF
:100350008093900008958091A0008F7707C08091CE
:10036000A0008F7D03C08091A000877F8093A000B4
:100370000895809120018F7707C0809120018F7DA3
:1003800003C080912001877F8093200108953FB7AB
:10039000F8948091CA029091CB02A091CC02B091C6
:1003A000CD0226B5A89B05C02F3F19F00196A11DCF
:1003B000B11D3FBFBA2FA92F982F8827820F911DFB
:1003C000A11DB11DBC01CD0142E0660F771F881F42
:1003D000991F4A95D1F708958F929F92AF92BF923D
:1003E000CF92DF92EF92FF926B017C01D0DF4B0145
:1003F0005C01C114D104E104F104E9F0C8DFDC01BF
:10040000CB0188199909AA09BB09883E9340A10527
:10041000B10578F321E0C21AD108E108F10888EEAD
:10042000880E83E0981EA11CB11CC114D104E10404
:10043000F10421F7DECFFF90EF90DF90CF90BF90D7
:10044000AF909F908F90089585ED8093BC00809130
:10045000BC0084FDFCCF1092D002089540915A0256
:10046000262F30E0240F311D21323105DCF420919C
:10047000D0022430C9F4FC0180E090E0861758F4E3
:1004800030915A022191DC01A85CBD4FA30FB11D30
:100490002C930196F3CF80915A02680F60935A0211
:1004A00080E0089581E0089582E00895089581E054
:1004B00090E03091D4022091D302321710F480E002
:1004C00090E091958195910908958091D402909141
:1004D000D302891730F48F5F8093D40280E090E0DC
:1004E00008958FEF9FEF08958091D30290E02091BF
:1004F000D402821B91090895CF92DF92EF92FF926E
:100500000F931F93CF93DF937C01262F972F8A01A0
:100510008091A302882391F0C62FD72F6E01C40EBD
:10052000D51ECC15DD0569F06991D701ED91FC91DF
:100530000190F081E02DC7011995F3CF642F822F30
:100540008DDFC801DF91CF911F910F91FF90EF9048
:10055000DF90CF900895CF93DF931F92CDB7DEB792
:1005600069832091A3022223D1F02091D10220326D
:1005700040F021E030E0FC013383228380E090E012
:1005800014C08091D202E82FF0E0EC55FD4F998124
:1005900090838F5F8093D2028093D10204C061E088
:1005A000CE0101965BDF81E090E00F90DF91CF916B
:1005B0000895CF93FC01C48121E02093A302C0934E
:1005C000C4021092D2021092D1028385682B85ED6D
:1005D00092E0C1DF8091D102813208F046C0909153
:1005E000D0029111FCCF92E09093D00291E09093D1
:1005F000CF029FEF9093A2021092A1028093A002DB
:10060000A4EAB2E020E832E0F9019E2F921B98178D
:1006100018F49D919193F9CF10927F0280917F02FF
:10062000CC0FC82BC0937F028091CE02813061F441
:100630001092CE0280917F028093BB008091BC001B
:1006400083FDF8CF85EC01C085EE8093BC008091DE
:10065000D0028230E1F38091A2028F3F31F080918D
:10066000A202803211F08091A2021092D202109266
:10067000D1021092A302CF9108950F931F93CF93AD
:100680008C01C62F96DF6C2F6460C80192DF6C2F3F
:100690006B7FC8018EDF83EC90E00197F1F7CF917B
:1006A0001F910F910895089580E090E008950E94B1
:1006B000B90D0F931F93CF93DF93EC01888199813C
:1006C000009729F02A813B812617370788F48B0190
:1006D0006F5F7F4F0E94D50C009761F099838883EC
:1006E0001B830A832C813D81232B11F4FC01108292
:1006F00081E001C080E0DF91CF911F910F910895BB
:10070000CF93DF93EC0188819981009711F00E94CB
:100710003D0C198218821D821C821B821A82DF9175
:10072000CF910895EF92FF920F931F93CF93DF9392
:10073000EC01FB0184819581E080F1800C811D81B9
:10074000E114F104A9F00097A9F0080F191FB801EE
:10075000CE01AFDF882361F0288139818C819D81B2
:10076000B701820F931F0E94C60D1D830C8302C028
:10077000CE01C6DFCE01DF91CF911F910F91FF9087
:10078000EF900895EF92FF920F931F93CF93DF9313
:10079000EC017B018A01BA018CDF811103C0CE011B
:1007A000AFDF07C01D830C83B701888199810E9448
:1007B000C60DCE01DF91CF911F910F91FF90EF9069
:1007C0000895FC0111821082138212821582148214
:1007D0006115710549F0FB0101900020E9F731979F
:1007E000AF01461B570BCECF0895EF92FF920F93A8
:1007F0001F93CF93DF93CDB7DEB729970FB6F89449
:10080000DEBF0FBECDBF8C01862FF8011182108292
:10081000138212821582148250E09E012F5F3F4F97
:100820007901B90190E059D7F70101900020E9F76B
:100830003197AF014E195F09B701C801A3DF2996AF
:100840000FB6F894DEBF0FBECDBFDF91CF911F91E1
:100850000F91FF90EF900895FC01808191810C949D
:100860003D0CFB01DC0111961C921E9213961C920A
:100870001E92129715961C921E9214978617970730
:1008800041F0608171816115710519F044815581D4
:1008900079CF0895CF93DF93282F30E0F901EE51FF
:1008A000FE4F8491F901E456FE4FD491F901EA5AC2
:1008B000FE4FC491CC2389F0811113DDEC2FF0E0C1
:1008C000EE0FFF1FE45CFE4FA591B491EC91ED2378
:1008D00081E090E021F480E002C080E090E0DF91D0
:1008E000CF9108951F93CF93DF93282F30E0F90124
:1008F000EE51FE4F8491F901E456FE4FD491F90177
:10090000EA5AFE4FC491CC23C1F0162F8111E9DCC5
:10091000EC2FF0E0EE0FFF1FEE5DFE4FA591B491BE
:100920008FB7F894111105C09C91ED2FE095E92344
:1009300002C0EC91ED2BEC938FBFDF91CF911F9113
:100940000895CF93DF9390E0FC01E456FE4F24918D
:10095000FC01EA5AFE4F8491882361F190E0880FF0
:10096000991FFC01E85FFE4FC591D491FC01EE5D3B
:10097000FE4FA591B491611109C09FB7F894888189
:10098000209582238883EC912E230BC0623061F482
:100990009FB7F8943881822F809583238883EC91C8
:1009A0002E2B2C939FBF06C08FB7F894E8812E2B77
:1009B00028838FBFDF91CF9108951F920F920FB6BA
:1009C0000F9211242F933F938F939F93AF93BF93D5
:1009D0008091C6029091C702A091C802B091C9024D
:1009E0003091C50223E0230F2D3720F40196A11D7D
:1009F000B11D05C026E8230F0296A11DB11D20934D
:100A0000C5028093C6029093C702A093C802B09318
:100A1000C9028091CA029091CB02A091CC02B09100
:100A2000CD020196A11DB11D8093CA029093CB0205
:100A3000A093CC02B093CD02BF91AF919F918F91C3
:100A40003F912F910F900FBE0F901F901895FF921E
:100A50000F931F93CF93DF931F92CDB7DEB78C0117
:100A6000F62E962F907F692F642BC801498305DEEF
:100A700080E1F89EB00111244981642BC8010F90D8
:100A8000DF91CF911F910F91FF90F7CD41E0DFDF14
:100A900081E090E008951F920F920FB60F921124FB
:100AA0000BB60F922F933F934F935F936F937F9368
:100AB0008F939F93AF93BF93EF93FF938091B90070
:100AC000887F803609F49CC068F5883209F45BC0E1
:100AD00090F4803109F454C038F4882309F4F6C046
:100AE000883009F44DC0F5C0883109F44CC080321B
:100AF00009F45DC0EEC0803409F468C048F4803366
:100B000009F455C0883309F0E4C08093A202D8C02C
:100B1000803509F44FC0883509F45DC0883409F088
:100B2000D8C0D6C0883909F4C7C0A8F4883709F4FA
:100B300067C038F4883609F463C0803709F460C0B0
:100B4000C8C0883809F4B8C0803909F45FC080385B
:100B500009F0BFC05BC0803B09F486C038F4803A1E
:100B600009F466C0883A09F47FC0B3C0803C09F438
:100B7000A7C0883C09F4A4C0883B09F48AC0A9C076
:100B800080917F0210C09091A1028091A0029817DD
:100B900070F5E091A10281E08E0F8093A102F0E058
:100BA000E058FD4F80818093BB0085EC86C0809328
:100BB000A2028EC0E091A10281E08E0F8093A1027B
:100BC0008091BB00F0E0E058FD4F80839091A1023E
:100BD0008091A0026EC0E091A10281E08E0F80930F
:100BE000A1028091BB00F0E0E058FD4F808380912E
:100BF000CF0281116DC081E08093CE0284EA61C092
:100C000083E08093D00210927E02CFCF80917E024B
:100C1000803208F051C0E0917E0281E08E0F809317
:100C20007E028091BB00F0E0E25AFD4F8083BDCF91
:100C300085EC8093BC001092D00280917E028032BD
:100C400030F4E0917E02F0E0E25AFD4F10826091B4
:100C50007E0270E0E0915C02F0915D028EE592E030
:100C6000199510927E0235C084E08093D0021092D4
:100C70005B0210925A02E0915802F09159021995C4
:100C800080915A02811105C081E080935A0210922E
:100C90003802E0915B0281E08E0F80935B02F0E00E
:100CA000E85CFD4F80818093BB0090915B02809156
:100CB0005A02981708F479CF85E88093BC0009C0E0
:100CC00085EC8093BC001092D00203C01092A20267
:100CD000BBDBFF91EF91BF91AF919F918F917F917E
:100CE0006F915F914F913F912F910F900BBE0F909D
:100CF0000FBE0F901F9018950F931F93CF93DF9304
:100D000001EE12E060E0F8018185ECDDCBE0D0E09F
:100D1000CE010197F1F761E0F8018085E3DDCE01B6
:100D20000197F1F761E0F8018185DCDD2197F1F7AA
:100D3000DF91CF911F910F910895EF92FF920F9342
:100D40001F93CF93DF93082FC8E0D0E010E88BE02B
:100D5000E82EF12C612F60238091EA02C3DD61E06F
:100D60008091E902BFDDF7013197F1F760E08091F2
:100D7000E902B8DD1695219769F760E08091EA02F3
:100D8000E0DD61E08091EA02ADDD61E08091E902A1
:100D9000A9DD8091EA027EDDC82F60E08091E90242
:100DA000A1DD61E08091EA02CCDD60E08091EA02A1
:100DB00099DD81E0C11180E0DF91CF911F910F910A
:100DC000FF90EF9008951F93CF93DF93182FC1EEFC
:100DD000D2E060E0898586DDEBE0F0E03197F1F765
:100DE00060E088857FDD812FDF91CF911F91A5CFB6
:100DF000EF92FF920F931F93CF93DF93C82F162F7D
:100E0000E72E042F80EDDFDF811102C080E012C0E9
:100E10008C2F93DF8823D1F3F12EC12FDE2D8C2F61
:100E20008F19801728F4899188DF8111F8CFEECFD0
:100E300063DF81E0DF91CF911F910F91FF90EF90E1
:100E40000895AF92BF92CF92DF92EF92FF920F93ED
:100E50001F93CF93DF93CDB7DEB728970FB6F894E3
:100E6000DEBF0FBECDBF80EDAEDF882309F4B7C073
:100E700080E063DF882309F4B2C061E08091EA0278
:100E800031DD61E08091E9022DDD8BE090E001979A
:100E9000F1F781ED98DF882309F4A1C0CE01019616
:100EA0006C0100E09BE0A92EB12CEE24E394063007
:100EB00009F0E12C61E08091EA0214DD60E08091AC
:100EC000EA023FDD88E0F82E10E0110FC50101971E
:100ED000F1F761E08091E90205DD8091EA02DADC58
:100EE000892B09F0116060E08091E902FBDCFA9443
:100EF000F110EBCF61E08091EA0223DD6E2D80914D
:100F0000EA02F0DC61E08091E902ECDCC5010197C6
:100F1000F1F760E08091E902E5DC60E08091EA02AF
:100F2000E1DCF60111936F010F5F073009F0BDCFCF
:100F3000E3DE8981982F9695969596959E70292F38
:100F4000220F220F920F8F70890F8093E1028A8106
:100F5000982F92959F708F70FAE09F9F800D1124BB
:100F60008093E2028B81982F969596959695967030
:100F7000292F220F220F920F8F70890F8093E30287
:100F80008C81982F92959F708F702AE0929F800D90
:100F900011248093E4028D81982F92959F708F7019
:100FA000EAE09E9F800D11248093E5028E81982FA8
:100FB00092959F708F70FAE09F9F800D112480930F
:100FC000E6028F81982F92959F708F702AE0929FF2
:100FD000800D112490E09093E8028093E702289618
:100FE0000FB6F894DEBF0FBECDBFDF91CF911F913A
:100FF0000F91FF90EF90DF90CF90BF90AF9008954A
:10100000CF93DF93CDB7DEB728970FB6F894DEBF46
:101010000FBECDBF98E0E6E0F2E0DE011196019050
:101020000D929A95E1F79091F302981710F48FEFD3
:10103000890FFE013196E80FF11DE80FF11D608167
:10104000606840E08BEE92E028960FB6F894DEBF21
:101050000FBECDBFDF91CF91FACCCF93DF93CDB749
:10106000DEB7C757D1090FB6F894DEBF0FBECDBFAC
:10107000789484B5826084BD84B5816084BD85B573
:10108000826085BD85B5816085BD80916E0081607F
:1010900080936E0010928100809181008260809325
:1010A0008100809181008160809381008091800027
:1010B0008160809380008091B10084608093B10052
:1010C0008091B00081608093B00080919100826037
:1010D0008093910080919100816080939100809134
:1010E00090008160809390008091A1008260809345
:1010F000A1008091A10081608093A1008091A00057
:1011000081608093A0008091210182608093210101
:101110008091210181608093210180912001816073
:101120008093200180917A00846080937A0080917E
:101130007A00826080937A0080917A008160809347
:101140007A0080917A00806880937A001092C100C2
:101150001092D4021092D3021092D2021092D102B5
:101160001092D00281E08093CF021092CE0261E013
:1011700084E1B8DB61E085E1B5DB8091B9008E7F69
:101180008093B9008091B9008D7F8093B90088E485
:101190008093B80085E48093BC001092F0028091A7
:1011A000F502823018F098E09093F0028093F302F9
:1011B00062E370E080E090E00FD96091F6028BEE80
:1011C00092E0F7D968EE73E080E090E005D960E343
:1011D0008BEE92E052DA0BE416E4C8010197F1F7C6
:1011E00060E38BEE92E049DAC8010197F1F760E322
:1011F0008BEE92E042DA83E592E00197F1F760E24C
:101200008BEE92E03ADA6091F002606240E08BEEA1
:1012100092E01DDC84E08093F10240E06CE08BEE14
:1012200092E015DC40E061E08BEE92E010DC0BE335
:101230001FE1C8010197F1F782E0F82EF092F20267
:1012400040E066E08BEE92E002DC40E062E08BEE94
:1012500092E0FDDBC8010197F1F788E08093F60288
:1012600060E08BEE92E0A5D940E061E08BEE92E089
:10127000EEDBC8010197F1F781E28B8388E28A8374
:10128000198243E0BE016F5F7F4F80E0B1DD89E1ED
:101290008B8381E08A8389E2898343E0BE016F5FAB
:1012A0007F4F84E0A5DDF98241E0BE016F5F7F4F93
:1012B00083E09EDD80E0A4DE6CE272E0CE018A96DF
:1012C00080DABFDD4AE06091E502CE01C6968DDA94
:1012D000BE016A5C7F4FCE01C096C3DABE01665D77
:1012E0007F4FCE01C0961EDABC01CE018496B9DADA
:1012F00062E372E0CE018E5B9F4F63DABE016E5BEC
:101300007F4FCE01CC96ADDABE016C5D7F4FCE0132
:10131000CC9608DABC01CE014E96A3DA92DD4AE003
:101320006091E602CE01825B9F4F5FDABE01625B95
:101330007F4FCE01885B9F4F94DABE01625E7F4F84
:10134000CE01885B9F4FEED9BC01CE01489689DA69
:1013500062E372E0CE01865A9F4F33DABE01665ACD
:101360007F4FCE018C5A9F4F7CDABE01685E7F4F63
:10137000CE018C5A9F4FD6D9BC01CE01429671DA6C
:1013800060DD8091E7029091E802A8961FAE1EAE44
:10139000A897AA961FAE1EAEAA97AC961FAE1EAE19
:1013A000AC974AE08E010F5F1F4FB8018053984FF2
:1013B0009ED1F80101900020E9F73197AF01401B61
:1013C000510BB801CE018A599F4FDCD9BE016A5931
:1013D0007F4FCE01805A9F4F44DABE016E5E7F4F31
:1013E000CE01805A9F4F9ED9BC01C8013ADA64E30E
:1013F00072E0CE018E589F4FE4D9BE016E587F4FE8
:10140000CE0184599F4F2DDAB801CE0184599F4FE8
:1014100089D9FC0144815581608171818BEE92E014
:101420000E944601CE0184599F4F16DACE018E5894
:101430009F4F12DAC80110DACE01805A9F4F0CDAA2
:10144000CE018A599F4F08DACE01429605DACE01C5
:101450008C5A9F4F01DACE01865A9F4FFDD9CE019B
:101460004896FAD9CE01885B9F4FF6D9CE01825BB0
:101470009F4FF2D9CE014E96EFD9CE01CC96ECD942
:10148000CE018E5B9F4FE8D9CE018496E5D9CE017F
:10149000C096E2D9CE01C696DFD9CE018A96DCD9B4
:1014A00081E0AEDD6CE272E0CE018A968AD9C9DCB9
:1014B0004AE06091E102CE01C69697D9BE016A5C0E
:1014C0007F4FCE01C096CDD9BE01665D7F4FCE0164
:1014D000C09628D9BC01CE018496C3D962E372E0DC
:1014E000CE018E5B9F4F6DD9BE016E5B7F4FCE01EB
:1014F000CC96B7D9BE016C5D7F4FCE01CC9612D988
:10150000BC01CE014E96ADD99CDC4AE06091E2026E
:10151000CE01825B9F4F69D9BE01625B7F4FCE01D6
:10152000885B9F4F9ED9BE01625E7F4FCE01885B74
:101530009F4FF8D8BC01CE01489693D962E372E080
:10154000CE01865A9F4F3DD9BE01665A7F4FCE01CC
:101550008C5A9F4F86D9BE01685E7F4FCE018C5A50
:101560009F4FE0D8BC01CE0142967BD96ADC4AE0AD
:101570006091E302CE018A599F4F37D9BE016A5963
:101580007F4FCE01805A9F4F6CD9BE016E5E7F4F58
:10159000CE01805A9F4FC6D8BC01C80162D964E30E
:1015A00072E0CE018E589F4F0CD9BE016E587F4F0E
:1015B000CE0184599F4F55D9B801CE0184599F4F10
:1015C000B1D8FC0144815581608171818BEE92E03C
:1015D0000E944601CE0184599F4F3ED9CE018E58BC
:1015E0009F4F3AD9C80138D9CE01805A9F4F34D97C
:1015F000CE018A599F4F30D9CE0142962DD9CE01C6
:101600008C5A9F4F29D9CE01865A9F4F25D9CE019A
:10161000489622D9CE01885B9F4F1ED9CE01825BAE
:101620009F4F1AD9CE014E9617D9CE01CC9614D918
:10163000CE018E5B9F4F10D9CE0184960DD9CE017D
:10164000C0960AD9CE01C69607D9CE018A9604D98A
:1016500064EF71E080E090E00E94EC0180E090E0B7
:10166000892B09F427CE0E94000024CE1F93CF932C
:10167000DF93E5EDF2E01382128288EE93E0A0E0C2
:10168000B0E084839583A683B78382E192E091835F
:101690008083EBEEF2E01382128284E292E0918387
:1016A000808380E2848380E1818782E08287138661
:1016B000C1EED2E01EE118878BE1898761E041D954
:1016C00061E089850FD9188761E08EE13AD961E040
:1016D0008885DF91CF911F9105C94532510518F4D6
:1016E000423008F004C0FB011082CB010895BB27F3
:1016F000FB015527AA27880F991FAA1FA41710F0CE
:10170000A41B83955051B9F7A05DAA3308F0A95DD9
:10171000A193009779F7B111B1931192CB0100C059
:10172000DC01FC01672F71917723E1F7329704C048
:101730007C916D9370836291AE17BF07C8F30895D3
:10174000EE0FFF1F881F8BBF0790F691E02D1994B5
:10175000CF93DF938230910510F482E090E0E09126
:10176000F902F091FA0220E030E0C0E0D0E03097DA
:1017700011F14081518148175907C0F048175907A6
:1017800061F482819381209719F09B838A832BC017
:101790009093FA028093F90226C02115310519F0C1
:1017A0004217530718F49A01BE01DF01EF010280CE
:1017B000F381E02DDCCF2115310509F1281B390B10
:1017C0002430310590F412968D919C9113976115F8
:1017D000710521F0FB019383828304C09093FA0288
:1017E0008093F902FD01329644C0FD01E20FF31F20
:1017F00081939193225031092D933C933AC02091CB
:10180000F7023091F802232B41F42091020230912B
:1018100003023093F8022093F702209100023091E6
:1018200001022115310541F42DB73EB74091040264
:1018300050910502241B350BE091F702F091F8025C
:10184000E217F307A0F42E1B3F0B2817390778F097
:10185000AC014E5F5F4F2417350748F04E0F5F1FF6
:101860005093F8024093F7028193919302C0E0E015
:10187000F0E0CF01DF91CF9108950F931F93CF93A5
:10188000DF93009709F48CC0FC0132971382128217
:101890000091F9021091FA020115110581F42081DD
:1018A0003181820F931F2091F7023091F80228179F
:1018B000390779F5F093F802E093F70271C0D80187
:1018C00040E050E0AE17BF0750F412962D913C91C6
:1018D0001397AD012115310509F1D901F3CF9D0110
:1018E000DA013383228360817181860F971F82170B
:1018F000930769F4EC0128813981260F371F2E5F89
:101900003F4F318320838A819B8193838283452B40
:1019100029F4F093FA02E093F90242C01396FC9383
:10192000EE931297ED01499159919E01240F351FB5
:10193000E217F30771F480819181840F951F02965D
:1019400011969C938E938281938113969C938E9390
:101950001297E0E0F0E0D80112968D919C911397D8
:10196000009719F0F8018C01F6CF8D919C919801A8
:101970002E5F3F4F820F931F2091F7023091F802A4
:101980002817390769F4309729F41092FA02109257
:10199000F90202C0138212821093F8020093F70238
:1019A000DF91CF911F910F9108956F927F928F9247
:1019B0009F92AF92BF92CF92DF92EF92FF920F93DE
:1019C0001F93CF93DF93EC01009781F4CB01DF915C
:1019D000CF911F910F91FF90EF90DF90CF90BF902C
:1019E000AF909F908F907F906F90B2CEFC01E60FEA
:1019F000F71F9C0122503109E217F30708F4A8C031
:101A0000D9010D911C91119706171707A8F0053001
:101A1000110508F49BC0C80104978617970708F4BE
:101A200095C002501109061B170B019311936D937A
:101A30007C93CF0122DF8AC05B01A01AB10A4C015E
:101A4000800E911EA091F902B091FA0240E050E0A0
:101A5000E12CF12C109709F44AC0A815B905D1F56D
:101A60006D907C901197630182E0C80ED11CCA145E
:101A7000DB0480F1A3014A195B096A0182E0C80E08
:101A8000D11C1296BC9012971396AC91B5E0CB1670
:101A9000D10440F0B282A38351834083D9016D9376
:101AA0007C930AC00E5F1F4FC301800F911FF90185
:101AB00091838083EB2DFA2FE114F10431F0D701EB
:101AC0001396FC93EE93129741C0F093FA02E093C1
:101AD000F9023CC08D919C9111974817590708F461
:101AE000AC017D0112960D90BC91A02DB3CF8091D9
:101AF000F7029091F80288159905E1F44617570707
:101B0000C8F48091000290910102009741F48DB7D2
:101B10009EB74091040250910502841B950BE81773
:101B2000F907B0F4F093F802E093F702F90171833A
:101B300060830CC0CB010CDE7C01009749F0A8014A
:101B4000BE011BD0CE0199DEC70104C0CE0102C088
:101B500080E090E0DF91CF911F910F91FF90EF9087
:101B6000DF90CF90BF90AF909F908F907F906F90BD
:101B7000089581E090E0F89410C0FB01DC0102C000
:101B800001900D9241505040D8F70895FB01DC01BF
:0E1B900001900D920020E1F70895F894FFCF28
:101B9E000000FB0280000000400014005400000012
:101BAE000000AB027C025403560274026502570217
:101BBE000000000046054601540353032020202058
:081BCE0020002D00543A000034
:00000001FF
