:1000000014C1000042C1000040C100003EC1000018
:100010003CC100003AC1000038C1000036C10000F8
:1000200034C1000032C1000030C100002EC1000008
:100030002CC100002AC1000028C1000026C1000018
:1000400024C1000022C1000020C100001EC1000028
:100050001CC100001AC1000018C10000AEC400009D
:1000600014C1000012C1000010C100000EC1000048
:100070000CC100000AC1000008C1000006C1000058
:1000800004C1000002C1000000C10000FEC0000069
:10009000FCC00000FAC00000F8C00000FCC4000072
:1000A000F4C00000F2C00000F0C00000EEC000008C
:1000B000ECC00000EAC00000E8C00000E6C000009C
:1000C000E4C00000E2C00000E0C00000DEC00000AC
:1000D000DCC00000DAC00000D8C00000D6C00000BC
:1000E000D4C000008C018F017E0182018801C6010D
:1000F000930197019D01A101A501AB01AF01B301DE
:10010000C601B901BD01C101000021002400270082
:100110002A002D0030003300010100000401070116
:100120000A0100002200250028002B002E003100CB
:10013000340002010000050108010B01000020004D
:100140002300260029002C002F00320000010000AF
:10015000030106010901050505050705080808084A
:10016000020202020A0A080804040404010101014F
:10017000010101010303030303030303040707074A
:100180000C0C0C0C0C0C0C0C0202020206060606EF
:10019000060606060B0B0B0B0B0B0B0B01021020BC
:1001A00020080810204010204080020102010804AD
:1001B0000201010204081020408080402010080441
:1001C000020180040201804020100804020108049A
:1001D00002010102040810204080010204081020DE
:1001E000408000000A0B02090C0D0E0807030401F1
:1001F00000000000000000000000000000000000FF
:1002000000000000000000000000000000001211CB
:1002100010000000000000000000000000000000CE
:100220000000000000000000360B11241FBECFEFBD
:10023000D1E2DEBFCDBF00E00CBF22E0A8E3B2E018
:1002400001C01D92AB3FB207E1F712E0A0E0B2E0BF
:10025000EEE9FBE100E00BBF02C007900D92A8336E
:10026000B107D9F711E0C5E1D1E000E006C0219760
:100270000109802FFE010E94A00BC431D10780E04C
:100280000807A9F7EAD60C94CD0DBACECF92DF922B
:10029000EF92FF920F931F93CF93DF936C017A013C
:1002A0008B01C0E0D0E0CE15DF0589F0D8016D915B
:1002B0008D01D601ED91FC910190F081E02DC601F8
:1002C0001995892B11F47E0102C02196ECCFC7014C
:1002D000DF91CF911F910F91FF90EF90DF90CF9022
:1002E000089590E0FC013197E231F10508F04EC02D
:1002F0008827EE58FF4F8F4F0C94A00B8091800001
:100300008F7703C0809180008F7D80938000089557
:1003100080918000877FF9CF84B58F7702C084B544
:100320008F7D84BD08958091B0008F7703C0809148
:10033000B0008F7D8093B0000895809190008F77FA
:1003400007C0809190008F7D03C080919000877FCF
:100350008093900008958091A0008F7707C08091CE
:10036000A0008F7D03C08091A000877F8093A000B4
:100370000895809120018F7707C0809120018F7DA3
:1003800003C080912001877F8093200108953FB7AB
:10039000F8948091CA029091CB02A091CC02B091C6
:1003A000CD0226B5A89B05C02F3F19F00196A11DCF
:1003B000B11D3FBFBA2FA92F982F8827820F911DFB
:1003C000A11DB11DBC01CD0142E0660F771F881F42
:1003D000991F4A95D1F708958F929F92AF92BF923D
:1003E000CF92DF92EF92FF926B017C01D0DF4B0145
:1003F0005C01C114D104E104F104E9F0C8DFDC01BF
:10040000CB0188199909AA09BB09883E9340A10527
:10041000B10578F321E0C21AD108E108F10888EEAD
:10042000880E83E0981EA11CB11CC114D104E10404
:10043000F10421F7DECFFF90EF90DF90CF90BF90D7
:10044000AF909F908F90089585ED8093BC00809130
:10045000BC0084FDFCCF1092D002089540915A0256
:10046000262F30E0240F311D21323105DCF420919C
:10047000D0022430C9F4FC0180E090E0861758F4E3
:1004800030915A022191DC01A85CBD4FA30FB11D30
:100490002C930196F3CF80915A02680F60935A0211
:1004A00080E0089581E0089582E00895089581E054
:1004B00090E03091D4022091D302321710F480E002
:1004C00090E091958195910908958091D402909141
:1004D000D302891730F48F5F8093D40280E090E0DC
:1004E00008958FEF9FEF08958091D30290E02091BF
:1004F000D402821B91090895CF92DF92EF92FF926E
:100500000F931F93CF93DF937C01262F972F8A01A0
:100510008091A302882391F0C62FD72F6E01C40EBD
:10052000D51ECC15DD0569F06991D701ED91FC91DF
:100530000190F081E02DC7011995F3CF642F822F30
:100540008DDFC801DF91CF911F910F91FF90EF9048
:10055000DF90CF900895CF93DF931F92CDB7DEB792
:1005600069832091A3022223D1F02091D10220326D
:1005700040F021E030E0FC013383228380E090E012
:1005800014C08091D202E82FF0E0EC55FD4F998124
:1005900090838F5F8093D2028093D10204C061E088
:1005A000CE0101965BDF81E090E00F90DF91CF916B
:1005B0000895CF93FC01C48121E02093A302C0934E
:1005C000C4021092D2021092D1028385682B85ED6D
:1005D00092E0C1DF8091D102813208F046C0909153
:1005E000D0029111FCCF92E09093D00291E09093D1
:1005F000CF029FEF9093A2021092A1028093A002DB
:10060000A4EAB2E020E832E0F9019E2F921B98178D
:1006100018F49D919193F9CF10927F0280917F02FF
:10062000CC0FC82BC0937F028091CE02813061F441
:100630001092CE0280917F028093BB008091BC001B
:1006400083FDF8CF85EC01C085EE8093BC008091DE
:10065000D0028230E1F38091A2028F3F31F080918D
:10066000A202803211F08091A2021092D202109266
:10067000D1021092A302CF9108950F931F93CF93AD
:100680008C01C62F96DF6C2F6460C80192DF6C2F3F
:100690006B7FC8018EDF83EC90E00197F1F7CF917B
:1006A0001F910F910895089580E090E008950E94B1
:1006B000B90D0F931F93CF93DF93EC01888199813C
:1006C000009729F02A813B812617370788F48B0190
:1006D0006F5F7F4F0E94D50C009761F099838883EC
:1006E0001B830A832C813D81232B11F4FC01108292
:1006F00081E001C080E0DF91CF911F910F910895BB
:10070000CF93DF93EC0188819981009711F00E94CB
:100710003D0C198218821D821C821B821A82DF9175
:10072000CF910895EF92FF920F931F93CF93DF9392
:10073000EC01FB0184819581E080F1800C811D81B9
:10074000E114F104A9F00097A9F0080F191FB801EE
:10075000CE01AFDF882361F0288139818C819D81B2
:10076000B701820F931F0E94C60D1D830C8302C028
:10077000CE01C6DFCE01DF91CF911F910F91FF9087
:10078000EF900895EF92FF920F931F93CF93DF9313
:10079000EC017B018A01BA018CDF811103C0CE011B
:1007A000AFDF07C01D830C83B701888199810E9448
:1007B000C60DCE01DF91CF911F910F91FF90EF9069
:1007C0000895FC0111821082138212821582148214
:1007D0006115710549F0FB0101900020E9F731979F
:1007E000AF01461B570BCECF0895EF92FF920F93A8
:1007F0001F93CF93DF93CDB7DEB729970FB6F89449
:10080000DEBF0FBECDBF8C01862FF8011182108292
:10081000138212821582148250E09E012F5F3F4F97
:100820007901B90190E059D7F70101900020E9F76B
:100830003197AF014E195F09B701C801A3DF2996AF
:100840000FB6F894DEBF0FBECDBFDF91CF911F91E1
:100850000F91FF90EF900895FC01808191810C949D
:100860003D0CFB01DC0111961C921E9213961C920A
:100870001E92129715961C921E9214978617970730
:1008800041F0608171816115710519F044815581D4
:1008900079CF0895CF93DF93282F30E0F901EE51FF
:1008A000FE4F8491F901E456FE4FD491F901EA5AC2
:1008B000FE4FC491CC2389F0811113DDEC2FF0E0C1
:1008C000EE0FFF1FE45CFE4FA591B491EC91ED2378
:1008D00081E090E021F480E002C080E090E0DF91D0
:1008E000CF9108951F93CF93DF93282F30E0F90124
:1008F000EE51FE4F8491F901E456FE4FD491F90177
:10090000EA5AFE4FC491CC23C1F0162F8111E9DCC5
:10091000EC2FF0E0EE0FFF1FEE5DFE4FA591B491BE
:100920008FB7F894111105C09C91ED2FE095E92344
:1009300002C0EC91ED2BEC938FBFDF91CF911F9113
:100940000895CF93DF9390E0FC01E456FE4F24918D
:10095000FC01EA5AFE4F8491882361F190E0880FF0
:10096000991FFC01E85FFE4FC591D491FC01EE5D3B
:10097000FE4FA591B491611109C09FB7F894888189
:10098000209582238883EC912E230BC0623061F482
:100990009FB7F8943881822F809583238883EC91C8
:1009A0002E2B2C939FBF06C08FB7F894E8812E2B77
:1009B00028838FBFDF91CF9108951F920F920FB6BA
:1009C0000F9211242F933F938F939F93AF93BF93D5
:1009D0008091C6029091C702A091C802B091C9024D
:1009E0003091C50223E0230F2D3720F40196A11D7D
:1009F000B11D05C026E8230F0296A11DB11D20934D
:100A0000C5028093C6029093C702A093C802B09318
:100A1000C9028091CA029091CB02A091CC02B09100
:100A2000CD020196A11DB11D8093CA029093CB0205
:100A3000A093CC02B093CD02BF91AF919F918F91C3
:100A40003F912F910F900FBE0F901F901895FF921E
:100A50000F931F93CF93DF931F92CDB7DEB78C0117
:100A6000F62E962F907F692F642BC801498305DEEF
:100A700080E1F89EB00111244981642BC8010F90D8
:100A8000DF91CF911F910F91FF90F7CD41E0DFDF14
:100A900081E090E008951F920F920FB60F921124FB
:100AA0000BB60F922F933F934F935F936F937F9368
:100AB0008F939F93AF93BF93EF93FF938091B90070
:100AC000887F803609F49CC068F5883209F45BC0E1
:100AD00090F4803109F454C038F4882309F4F6C046
:100AE000883009F44DC0F5C0883109F44CC080321B
:100AF00009F45DC0EEC0803409F468C048F4803366
:100B000009F455C0883309F0E4C08093A202D8C02C
:100B1000803509F44FC0883509F45DC0883409F088
:100B2000D8C0D6C0883909F4C7C0A8F4883709F4FA
:100B300067C038F4883609F463C0803709F460C0B0
:100B4000C8C0883809F4B8C0803909F45FC080385B
:100B500009F0BFC05BC0803B09F486C038F4803A1E
:100B600009F466C0883A09F47FC0B3C0803C09F438
:100B7000A7C0883C09F4A4C0883B09F48AC0A9C076
:100B800080917F0210C09091A1028091A0029817DD
:100B900070F5E091A10281E08E0F8093A102F0E058
:100BA000E058FD4F80818093BB0085EC86C0809328
:100BB000A2028EC0E091A10281E08E0F8093A1027B
:100BC0008091BB00F0E0E058FD4F80839091A1023E
:100BD0008091A0026EC0E091A10281E08E0F80930F
:100BE000A1028091BB00F0E0E058FD4F808380912E
:100BF000CF0281116DC081E08093CE0284EA61C092
:100C000083E08093D00210927E02CFCF80917E024B
:100C1000803208F051C0E0917E0281E08E0F809317
:100C20007E028091BB00F0E0E25AFD4F8083BDCF91
:100C300085EC8093BC001092D00280917E028032BD
:100C400030F4E0917E02F0E0E25AFD4F10826091B4
:100C50007E0270E0E0915C02F0915D028EE592E030
:100C6000199510927E0235C084E08093D0021092D4
:100C70005B0210925A02E0915802F09159021995C4
:100C800080915A02811105C081E080935A0210922E
:100C90003802E0915B0281E08E0F80935B02F0E00E
:100CA000E85CFD4F80818093BB0090915B02809156
:100CB0005A02981708F479CF85E88093BC0009C0E0
:100CC00085EC8093BC001092D00203C01092A20267
:100CD000BBDBFF91EF91BF91AF919F918F917F917E
:100CE0006F915F914F913F912F910F900BBE0F909D
:100CF0000FBE0F901F9018950F931F93CF93DF9304
:100D000001EE12E060E0F8018185ECDDCBE0D0E09F
:100D1000CE010197F1F761E0F8018085E3DDCE01B6
:100D20000197F1F761E0F8018185DCDD2197F1F7AA
:100D3000DF91CF911F910F910895EF92FF920F9342
:100D40001F93CF93DF93082FC8E0D0E010E88BE02B
:100D5000E82EF12C612F60238091EA02C3DD61E06F
:100D60008091E902BFDDF7013197F1F760E08091F2
:100D7000E902B8DD1695219769F760E08091EA02F3
:100D8000E0DD61E08091EA02ADDD61E08091E902A1
:100D9000A9DD8091EA027EDDC82F60E08091E90242
:100DA000A1DD61E08091EA02CCDD60E08091EA02A1
:100DB00099DD81E0C11180E0DF91CF911F910F910A
:100DC000FF90EF9008951F93CF93DF93182FC1EEFC
:100DD000D2E060E0898586DDEBE0F0E03197F1F765
:100DE00060E088857FDD812FDF91CF911F91A5CFB6
:100DF000EF92FF920F931F93CF93DF93C82F162F7D
:100E0000E72E042F80EDDFDF811102C080E012C0E9
:100E10008C2F93DF8823D1F3F12EC12FDE2D8C2F61
:100E20008F19801728F4899188DF8111F8CFEECFD0
:100E300063DF81E0DF91CF911F910F91FF90EF90E1
:100E40000895AF92BF92CF92DF92EF92FF920F93ED
:100E50001F93CF93DF93CDB7DEB728970FB6F894E3
:100E6000DEBF0FBECDBF80EDAEDF882309F4B7C073
:100E700080E063DF882309F4B2C061E08091EA0278
:100E800031DD61E08091E9022DDD8BE090E001979A
:100E9000F1F781ED98DF882309F4A1C0CE01019616
:100EA0006C0100E09BE0A92EB12CEE24E394063007
:100EB00009F0E12C61E08091EA0214DD60E08091AC
:100EC000EA023FDD88E0F82E10E0110FC50101971E
:100ED000F1F761E08091E90205DD8091EA02DADC58
:100EE000892B09F0116060E08091E902FBDCFA9443
:100EF000F110EBCF61E08091EA0223DD6E2D80914D
:100F0000EA02F0DC61E08091E902ECDCC5010197C6
:100F1000F1F760E08091E902E5DC60E08091EA02AF
:100F2000E1DCF60111936F010F5F073009F0BDCFCF
:100F3000E3DE8981982F9695969596959E70292F38
:100F4000220F220F920F8F70890F8093E1028A8106
:100F5000982F92959F708F70FAE09F9F800D1124BB
:100F60008093E2028B81982F969596959695967030
:100F7000292F220F220F920F8F70890F8093E30287
:100F80008C81982F92959F708F702AE0929F800D90
:100F900011248093E4028D81982F92959F708F7019
:100FA000EAE09E9F800D11248093E5028E81982FA8
:100FB00092959F708F70FAE09F9F800D112480930F
:100FC000E6028F81982F92959F708F702AE0929FF2
:100FD000800D112490E09093E8028093E702289618
:100FE0000FB6F894DEBF0FBECDBFDF91CF911F913A
:100FF0000F91FF90EF90DF90CF90BF90AF9008954A
:10100000CF93DF93CDB7DEB728970FB6F894DEBF46
:101010000FBECDBF98E0E6E0F2E0DE011196019050
:101020000D929A95E1F79091F302981710F48FEFD3
:10103000890FFE013196E80FF11DE80FF11D608167
:10104000606840E08BEE92E028960FB6F894DEBF21
:101050000FBECDBFDF91CF91FACCCF93DF93CDB749
:10106000DEB7C757D1090FB6F894DEBF0FBECDBFAC
:10107000789484B5826084BD84B5816084BD85B573
:10108000826085BD85B5816085BD80916E0081607F
:1010900080936E0010928100809181008260809325
:1010A0008100809181008160809381008091800027
:1010B0008160809380008091B10084608093B10052
:1010C0008091B00081608093B00080919100826037
:1010D0008093910080919100816080939100809134
:1010E00090008160809390008091A1008260809345
:1010F000A1008091A10081608093A1008091A00057
:1011000081608093A0008091210182608093210101
:101110008091210181608093210180912001816073
:101120008093200180917A00846080937A0080917E
:101130007A00826080937A0080917A008160809347
:101140007A0080917A00806880937A001092C100C2
:101150001092D4021092D3021092D2021092D102B5
:101160001092D00281E08093CF021092CE0261E013
:1011700084E1B8DB61E085E1B5DB8091B9008E7F69
:101180008093B9008091B9008D7F8093B90088E485
:101190008093B80085E48093BC001092F0028091A7
:1011A000F502823018F098E09093F0028093F302F9
:1011B00062E370E080E090E00FD96091F6028BEE80
:1011C00092E0F7D968EE73E080E090E005D960E343
:1011D0008BEE92E052DA0BE416E4C8010197F1F7C6
:1011E00060E38BEE92E049DAC8010197F1F760E322
:1011F0008BEE92E042DA83E592E00197F1F760E24C
:101200008BEE92E03ADA6091F002606240E08BEEA1
:1012100092E01DDC84E08093F10240E06CE08BEE14
:1012200092E015DC40E061E08BEE92E010DC0BE335
:101230001FE1C8010197F1F782E0F82EF092F20267
:1012400040E066E08BEE92E002DC40E062E08BEE94
:1012500092E0FDDBC8010197F1F788E08093F60288
:1012600060E08BEE92E0A5D940E061E08BEE92E089
:10127000EEDBC8010197F1F781E28B8388E28A8374
:10128000198243E0BE016F5F7F4F80E0B1DD89E1ED
:101290008B8381E08A8389E2898343E0BE016F5FAB
:1012A0007F4F84E0A5DDF98241E0BE016F5F7F4F93
:1012B00083E09EDD80E0A4DE6CE272E0CE018A96DF
:1012C00080DABFDD4AE06091E502CE01C6968DDA94
:1012D000BE016A5C7F4FCE01C096C3DABE01665D77
:1012E0007F4FCE01C0961EDABC01CE018496B9DADA
:1012F00062E372E0CE018E5B9F4F63DABE016E5BEC
:101300007F4FCE01CC96ADDABE016C5D7F4FCE0132
:10131000CC9608DABC01CE014E96A3DA92DD4AE003
:101320006091E602CE01825B9F4F5FDABE01625B95
:101330007F4FCE01885B9F4F94DABE01625E7F4F84
:10134000CE01885B9F4FEED9BC01CE01489689DA69
:1013500062E372E0CE01865A9F4F33DABE01665ACD
:101360007F4FCE018C5A9F4F7CDABE01685E7F4F63
:10137000CE018C5A9F4FD6D9BC01CE01429671DA6C
:1013800060DD8091E7029091E802A8961FAE1EAE44
:10139000A897AA961FAE1EAEAA97AC961FAE1EAE19
:1013A000AC974AE08E010F5F1F4FB8018053984FF2
:1013B0009ED1F80101900020E9F73197AF01401B61
:1013C000510BB801CE018A599F4FDCD9BE016A5931
:1013D0007F4FCE01805A9F4F44DABE016E5E7F4F31
:1013E000CE01805A9F4F9ED9BC01C8013ADA64E30E
:1013F00072E0CE018E589F4FE4D9BE016E587F4FE8
:10140000CE0184599F4F2DDAB801CE0184599F4FE8
:1014100089D9FC0144815581608171818BEE92E014
:101420000E944601CE0184599F4F16DACE018E5894
:101430009F4F12DAC80110DACE01805A9F4F0CDAA2
:10144000CE018A599F4F08DACE01429605DACE01C5
:101450008C5A9F4F01DACE01865A9F4FFDD9CE019B
:101460004896FAD9CE01885B9F4FF6D9CE01825BB0
:101470009F4FF2D9CE014E96EFD9CE01CC96ECD942
:10148000CE018E5B9F4FE8D9CE018496E5D9CE017F
:10149000C096E2D9CE01C696DFD9CE018A96DCD9B4
:1014A00081E0AEDD6CE272E0CE018A968AD9C9DCB9
:1014B0004AE06091E102CE01C69697D9BE016A5C0E
:1014C0007F4FCE01C096CDD9BE01665D7F4FCE0164
:1014D000C09628D9BC01CE018496C3D962E372E0DC
:1014E000CE018E5B9F4F6DD9BE016E5B7F4FCE01EB
:1014F000CC96B7D9BE016C5D7F4FCE01CC9612D988
:10150000BC01CE014E96ADD99CDC4AE06091E2026E
:10151000CE01825B9F4F69D9BE01625B7F4FCE01D6
:10152000885B9F4F9ED9BE01625E7F4FCE01885B74
:101530009F4FF8D8BC01CE01489693D962E372E080
:10154000CE01865A9F4F3DD9BE01665A7F4FCE01CC
:101550008C5A9F4F86D9BE01685E7F4FCE018C5A50
:101560009F4FE0D8BC01CE0142967BD96ADC4AE0AD
:101570006091E302CE018A599F4F37D9BE016A5963
:101580007F4FCE01805A9F4F6CD9BE016E5E7F4F58
:10159000CE01805A9F4FC6D8BC01C80162D964E30E
:1015A00072E0CE018E589F4F0CD9BE016E587F4F0E
:1015B000CE0184599F4F55D9B801CE0184599F4F10
:1015C000B1D8FC0144815581608171818BEE92E03C
:1015D0000E944601CE0184599F4F3ED9CE018E58BC
:1015E0009F4F3AD9C80138D9CE01805A9F4F34D97C
:1015F000CE018A599F4F30D9CE0142962DD9CE01C6
:101600008C5A9F4F29D9CE01865A9F4F25D9CE019A
:10161000489622D9CE01885B9F4F1ED9CE01825BAE
:101620009F4F1AD9CE014E9617D9CE01CC9614D918
:10163000CE018E5B9F4F10D9CE0184960DD9CE017D
:10164000C0960AD9CE01C69607D9CE018A9604D98A
:1016500064EF71E080E090E00E94EC0180E090E0B7
:10166000892B09F427CE0E94000024CE1F93CF932C
:10167000DF93E5EDF2E01382128288EE93E0A0E0C2
:10168000B0E084839583A683B78382E192E091835F
:101690008083EBEEF2E01382128284E292E0918387
:1016A000808380E2848380E1818782E08287138661
:1016B000C1EED2E01EE118878BE1898761E041D954
:1016C00061E089850FD9188761E08EE13AD961E040
:1016D0008885DF91CF911F9105C94532510518F4D6
:1016E000423008F004C0FB011082CB010895BB27F3
:1016F000FB015527AA27880F991FAA1FA41710F0CE
:10170000A41B83955051B9F7A05DAA3308F0A95DD9
:10171000A193009779F7B111B1931192CB0100C059
:10172000DC01FC01672F71917723E1F7329704C048
:101730007C916D9370836291AE17BF07C8F30895D3
:10174000EE0FFF1F881F8BBF0790F691E02D1994B5
:10175000CF93DF938230910510F482E090E0E09126
:10176000F902F091FA0220E030E0C0E0D0E03097DA
:1017700011F14081518148175907C0F048175907A6
:1017800061F482819381209719F09B838A832BC017
:101790009093FA028093F90226C02115310519F0C1
:1017A0004217530718F49A01BE01DF01EF010280CE
:1017B000F381E02DDCCF2115310509F1281B390B10
:1017C0002430310590F412968D919C9113976115F8
:1017D000710521F0FB019383828304C09093FA0288
:1017E0008093F902FD01329644C0FD01E20FF31F20
:1017F00081939193225031092D933C933AC02091CB
:10180000F7023091F802232B41F42091020230912B
:1018100003023093F8022093F702209100023091E6
:1018200001022115310541F42DB73EB74091040264
:1018300050910502241B350BE091F702F091F8025C
:10184000E217F307A0F42E1B3F0B2817390778F097
:10185000AC014E5F5F4F2417350748F04E0F5F1FF6
:101860005093F8024093F7028193919302C0E0E015
:10187000F0E0CF01DF91CF9108950F931F93CF93A5
:10188000DF93009709F48CC0FC0132971382128217
:101890000091F9021091FA020115110581F42081DD
:1018A0003181820F931F2091F7023091F80228179F
:1018B000390779F5F093F802E093F70271C0D80187
:1018C00040E050E0AE17BF0750F412962D913C91C6
:1018D0001397AD012115310509F1D901F3CF9D0110
:1018E000DA013383228360817181860F971F82170B
:1018F000930769F4EC0128813981260F371F2E5F89
:101900003F4F318320838A819B8193838283452B40
:1019100029F4F093FA02E093F90242C01396FC9383
:10192000EE931297ED01499159919E01240F351FB5
:10193000E217F30771F480819181840F951F02965D
:1019400011969C938E938281938113969C938E9390
:101950001297E0E0F0E0D80112968D919C911397D8
:10196000009719F0F8018C01F6CF8D919C919801A8
:101970002E5F3F4F820F931F2091F7023091F802A4
:101980002817390769F4309729F41092FA02109257
:10199000F90202C0138212821093F8020093F70238
:1019A000DF91CF911F910F9108956F927F928F9247
:1019B0009F92AF92BF92CF92DF92EF92FF920F93DE
:1019C0001F93CF93DF93EC01009781F4CB01DF915C
:1019D000CF911F910F91FF90EF90DF90CF90BF902C
:1019E000AF909F908F907F906F90B2CEFC01E60FEA
:1019F000F71F9C0122503109E217F30708F4A8C031
:101A0000D9010D911C91119706171707A8F0053001
:101A1000110508F49BC0C80104978617970708F4BE
:101A200095C002501109061B170B019311936D937A
:101A30007C93CF0122DF8AC05B01A01AB10A4C015E
:101A4000800E911EA091F902B091FA0240E050E0A0
:101A5000E12CF12C109709F44AC0A815B905D1F56D
:101A60006D907C901197630182E0C80ED11CCA145E
:101A7000DB0480F1A3014A195B096A0182E0C80E08
:101A8000D11C1296BC9012971396AC91B5E0CB1670
:101A9000D10440F0B282A38351834083D9016D9376
:101AA0007C930AC00E5F1F4FC301800F911FF90185
:101AB00091838083EB2DFA2FE114F10431F0D701EB
:101AC0001396FC93EE93129741C0F093FA02E093C1
:101AD000F9023CC08D919C9111974817590708F461
:101AE000AC017D0112960D90BC91A02DB3CF8091D9
:101AF000F7029091F80288159905E1F44617570707
:101B0000C8F48091000290910102009741F48DB7D2
:101B10009EB74091040250910502841B950BE81773
:101B2000F907B0F4F093F802E093F702F90171833A
:101B300060830CC0CB010CDE7C01009749F0A8014A
:101B4000BE011BD0CE0199DEC70104C0CE0102C088
:101B500080E090E0DF91CF911F910F91FF90EF9087
:101B6000DF90CF90BF90AF909F908F907F906F90BD
:101B7000089581E090E0F89410C0FB01DC0102C000
:101B800001900D9241505040D8F70895FB01DC01BF
:0E1B900001900D920020E1F70895F894FFCF28
:101B9E000000FB0280000000400014005400000012
:101BAE000000AB027C025403560274026502570217
:101BBE000000000046054601540353032020202058
:081BCE0020002D00543A000034
:020000023000CC
:10E000000D9489F10D94B2F10D94B2F10D94B2F129
:10E010000D94B2F10D94B2F10D94B2F10D94B2F1F0
:10E020000D94B2F10D94B2F10D94B2F10D94B2F1E0
:10E030000D94B2F10D94B2F10D94B2F10D94B2F1D0
:10E040000D94B2F10D94B2F10D94B2F10D94B2F1C0
:10E050000D94B2F10D94B2F10D94B2F10D94B2F1B0
:10E060000D94B2F10D94B2F10D94B2F10D94B2F1A0
:10E070000D94B2F10D94B2F10D94B2F10D94B2F190
:10E080000D94B2F10D94B2F10D94B2F10D94B2F180
:10E090000D94B2F10D94B2F10D94B2F10D94B2F170
:10E0A0000D94B2F10D94B2F10D94B2F10D94B2F160
:10E0B0000D94B2F10D94B2F10D94B2F10D94B2F150
:10E0C0000D94B2F10D94B2F10D94B2F10D94B2F140
:10E0D0000D94B2F10D94B2F10D94B2F10D94B2F130
:10E0E0000D94B2F141546D656761323536300041AF
:10E0F000726475696E6F206578706C6F72657220DE
:10E1000073746B3530305632206279204D4C530099
:10E11000426F6F746C6F616465723E004875683F52
:10E1200000436F6D70696C6564206F6E203D200048
:10E130004350552054797065202020203D20005FF9
:10E140005F4156525F415243485F5F3D2000415658
:10E1500052204C696243205665723D20004743437C
:10E160002056657273696F6E203D20004350552024
:10E1700049442020202020203D20004C6F7720663D
:10E18000757365202020203D20004869676820665F
:10E190007573652020203D200045787420667573D6
:10E1A00065202020203D20004C6F636B2066757336
:10E1B000652020203D20004D617220203720323024
:10E1C000313300312E362E3800342E332E350056A2
:10E1D00023202020414444522020206F7020636F70
:10E1E00064652020202020696E73747275637469E1
:10E1F0006F6E2061646472202020496E74657272B3
:10E20000757074006E6F20766563746F7200726A49
:10E210006D702020006A6D70200057686174207056
:10E220006F72743A00506F7274206E6F7420737541
:10E2300070706F72746564004D7573742062652030
:10E2400061206C6574746572002000577269747483
:10E25000696E672045450052656164696E672045B7
:10E26000450045452065727220636E743D00504F35
:10E27000525400303D5A65726F2061646472003FF1
:10E280003D43505520737461747300403D454550C3
:10E29000524F4D207465737400423D426C696E6B41
:10E2A000204C454400453D44756D70204545505215
:10E2B0004F4D00463D44756D7020464C415348001B
:10E2C000483D48656C70004C3D4C69737420492F83
:10E2D0004F20506F72747300513D51756974005234
:10E2E0003D44756D702052414D00563D73686F7707
:10E2F00020696E7465727275707420566563746FF0
:10E30000727300593D506F727420626C696E6B00BD
:10E310002A0011241FBECFEFD1E2DEBFCDBF01E046
:10E320000CBF12E0A0E0B2E0EEE1FDEF03E00BBFB6
:10E3300002C007900D92A030B107D9F712E0A0E01B
:10E34000B2E001C01D92AE30B107E1F70F9460F367
:10E350000D948DFE01E20EBF0FEF0DBF11241FBE05
:10E360000D9460F30D9400F020E030E040ED57E0B4
:10E3700005C0FA013197F1F72F5F3F4F2817390792
:10E38000C0F308959C01260F311DC901A0E0B0E043
:10E390002F5F3F4FABBFFC018791882361F08093D3
:10E3A000C6008091C00086FFFCCF8091C0008064D1
:10E3B0008093C000EACF08958DE08093C6008091DD
:10E3C000C00086FFFCCF8091C00080648093C000B5
:10E3D0008AE08093C6008091C00086FFFCCF8091C8
:10E3E000C00080648093C00008950F94C2F10F9420
:10E3F000DCF10895FC019081992359F09093C600B7
:10E400008091C00086FFFCCF8091C0008064809323
:10E41000C0003196992379F70895282F982F929567
:10E420009F70892F805D8A3308F0895F8093C600D2
:10E430008091C00086FFFCCF8091C00080648093F3
:10E44000C000822F8F70982F905D9A3308F0995FEB
:10E450009093C6008091C00086FFFCCF8091C000E1
:10E4600080648093C00008959C01FB01853691056E
:10E470001CF46330710594F0C90164E670E00F94F8
:10E480002EFE605D7F4F6093C6008091C00086FFC6
:10E49000FCCF8091C00080648093C0002B30310598
:10E4A00014F43297B4F0C90164E670E00F942EFEC4
:10E4B0006AE070E00F942EFE605D7F4F6093C600AF
:10E4C0008091C00086FFFCCF8091C0008064809363
:10E4D000C000C9016AE070E00F942EFEC0968093E0
:10E4E000C6008091C00086FFFCCF8091C000806490
:10E4F0008093C00008951F93182F8EE692EE60E07F
:10E500000F94C2F11093C6008091C00086FFFCCF2B
:10E510008091C00080648093C0000F94DCF11F9153
:10E5200008952F923F924F925F926F927F928F92B7
:10E530009F92AF92BF92CF92DF92EF92FF920F9392
:10E540001F93DF93CF93CDB7DEB762970FB6F894E2
:10E55000DEBF0FBECDBF382E622ECA01DB015C01CB
:10E560006D01772420E2222E2E010894411C511CBB
:10E570008BC081E0A81680E0B80681E0C80680E084
:10E58000D80628F0C601AA27BB270F940DF2BB2797
:10E59000AD2D9C2D8B2D0F940DF28A2D0F940DF225
:10E5A0002092C6008091C00086FFFCCF8091C00001
:10E5B00080648093C0009DE29093C6008091C0006B
:10E5C00086FFFCCF8091C00080648093C0002092C1
:10E5D000C6008091C00086FFFCCF8091C00080649F
:10E5E0008093C00019828601750188249924A1E0D6
:10E5F0003A1651F03A1620F0B2E03B1661F409C029
:10E600000BBFF701779007C0C7010F9477FE782EF4
:10E6100002C0F7017080872D0F940DF22092C60082
:10E620008091C00086FFFCCF8091C0008064809301
:10E63000C000872D8052F401EF70F0708F3520F408
:10E64000E40DF51D708204C0E40DF51D8EE280839B
:10E650000894E11CF11C011D111D0894811C911CE2
:10E6600090E18916910409F0C2CF80E190E0A0E02A
:10E67000B0E0A80EB91ECA1EDB1E198AC2010F9493
:10E68000FAF10F94DCF16A94662009F072CF629679
:10E690000FB6F894DEBF0FBECDBFCF91DF911F91B3
:10E6A0000F91FF90EF90DF90CF90BF90AF909F9031
:10E6B0008F907F906F905F904F903F902F90089534
:10E6C0002F923F924F925F926F927F928F929F9282
:10E6D000AF92BF92CF92DF92EF92FF920F931F9370
:10E6E000DF93CF93CDB7DEB7CD53D1400FB6F894BB
:10E6F000DEBF0FBECDBF01E20EBF0FEF0DBF94B75F
:10E70000F894A89514BE80916000886180936000A1
:10E7100010926000789493FF05C0E0910002F091A0
:10E7200001021995279A2F9A8091C00082608093E8
:10E73000C00080E18093C40088E18093C1000000A4
:10E74000EE24FF24870144E0A42EB12CCC24DD2448
:10E7500024C0C5010197F1F70894E11CF11C011DCB
:10E76000111D21E2E2162EE4F20620E0020720E06D
:10E77000120718F031E0C32ED12CC801B70127ECE5
:10E780003BE140E050E00F9441FE611571058105C9
:10E79000910519F485B1805885B98091C00087FD35
:10E7A00003C0C114D104A9F2A6014F5F5F4FC25E3E
:10E7B000DE4F59834883CE51D140C25EDE4F8881FF
:10E7C0009981CE51D140019711F00D9410FEC05D9A
:10E7D000DE4F19821882C053D14060E0C15DDE4F28
:10E7E0001882CF52D14088249924C35DDE4F19820C
:10E7F0001882CD52D140C05EDE4F188219821A8233
:10E800001B82C052D140CE5CDE4F188219821A8220
:10E810001B82C253D140EE24FF2487010BBFF701B6
:10E8200007911691C45CDE4F19830883CC53D14005
:10E830000D940BFEC25EDE4F28813981CE51D1404E
:10E840002130310509F52091C600C25EDE4F1982E4
:10E850001882CE51D14022C02F5F3F4F4F4F5F4FA4
:10E86000213082E138078AE7480780E0580780F0C6
:10E87000C45CDE4FE881F981CC53D140EF5FFF4F9C
:10E8800019F0EE27FF27099420E030E040E050E047
:10E890008091C00087FFE0CF2091C600C35DDE4FAE
:10E8A00048815981CD52D1404F5F5F4FC35DDE4FEC
:10E8B00059834883CD52D140213209F063C64A3092
:10E8C000510508F05FC60894811C911C53E0851621
:10E8D000910409F059C600E010E018C081E280936D
:10E8E000C6008091C00086FFFCCF8091C00080648C
:10E8F0008093C0002F5F3F4F2931310579F70F9486
:10E90000DCF10F5F1F4F0530110519F020E030E0FA
:10E91000E5CF10920A0210920B0210920C02109294
:10E920000D02109206021092070210920802109235
:10E930000902109202021092030210920402109235
:10E9400005028FEE90EE60E00F94F5F180E191EE1C
:10E9500060E00F94C2F18091C00087FFFCCF9091DE
:10E96000C600903608F09F759032B8F09093C600BC
:10E970008091C00086FFFCCF8091C00080648093AE
:10E98000C000A0E2A093C6008091C00086FFFCCF2B
:10E990008091C00080648093C000983409F4D7C18E
:10E9A0009934B8F4923409F459C1933458F490333B
:10E9B00019F1903308F4E3C59F33A1F1903409F0C5
:10E9C000DEC5BDC0953409F470C1963409F0D7C5D1
:10E9D00098C1923509F42BC2933538F49C3409F46C
:10E9E000F5C1913509F0CBC518C2963509F445C279
:10E9F000993509F0C4C567C483E792EE62E00F94CD
:10EA0000F5F110920602109207021092080210927D
:10EA1000090210920A0210920B0210920C0210923C
:10EA20000D0213C18FE792EE62E00F94F5F18FEEC5
:10EA300090EE60E00F94F5F181E291EE60E00F94CA
:10EA4000C2F187EB91EE60E00F94F5F180E391EE77
:10EA500060E00F94C2F184EE90EE60E00F94F5F167
:10EA60008FE391EE60E00F94C2F186E090E061E008
:10EA700070E00F9434F20F94DCF18DE591EE60E0DC
:10EA80000F94C2F189EC91EE60E00F94F5F18EE401
:10EA900091EE60E00F94C2F183EC91EE60E00F9490
:10EAA000F5F18CE691EE60E00F94C2F18EE10F94E7
:10EAB0000DF288E90F940DF281E00F940DF20F949E
:10EAC000DCF18BE791EE60E00F94C2F119E0E0E039
:10EAD000F0E010935700E4918E2F0F940DF20F94F5
:10EAE000DCF18AE891EE60E00F94C2F1E3E0F0E03F
:10EAF00010935700E4918E2F0F940DF20F94DCF1D8
:10EB000089E991EE60E00F94C2F1E2E0F0E0109349
:10EB10005700E4918E2F0F940DF20F94DCF188EAE8
:10EB200091EE60E00F94C2F1E1E0F0E01093570045
:10EB30001491812F0F940DF20F94DCF107CF8BE825
:10EB400092EE62E00F94F5F18BE492EE60E00F94A8
:10EB5000F5F10F94DCF100E010E019C0C8016F2D51
:10EB60000F947FFEFF2031F489E492EE60E00F9471
:10EB7000C2F10BC0F092C6008091C00086FFFCCFAE
:10EB80008091C00080648093C0000F5F1F4FC80158
:10EB900081519F41A0E0B0E0ABBFFC01F790BAE229
:10EBA000FB1621F0E2E000301E07C1F60F94DCF105
:10EBB0000F94DCF187E592EE60E00F94F5F10F948D
:10EBC000DCF1CC24DD2400E010E01EC0C8010F946D
:10EBD00077FEF82E882331F489E492EE60E00F94FA
:10EBE000C2F10BC08093C6008091C00086FFFCCFAD
:10EBF0008091C00080648093C000FE1419F00894D6
:10EC0000C11CD11C0F5F1F4FC80181519F41A0E063
:10EC1000B0E0ABBFFC01E790FAE2EF1621F022E092
:10EC20000030120799F60F94DCF10F94DCF182E6C4
:10EC300092EE60E00F94C2F1C60161E070E00F94C3
:10EC400034F20F94DCF10F94DCF110920202109276
:10EC50000302109204021092050278CE89E992EE26
:10EC600062E00F94F5F1279A2F9A16C02F9880E052
:10EC700090E0E0EDF7E03197F1F7019684369105E9
:10EC8000C1F72F9A80E090E0E0EDF7E03197F1F7DF
:10EC9000019684369105C1F78091C00087FFE6CFC9
:10ECA0008091C00087FFFCCF64C485EA92EE62E0E9
:10ECB0000F94F5F140910202509103026091040219
:10ECC0007091050281E020E10F9491F2809102029F
:10ECD00090910302A0910402B091050280509F4FD1
:10ECE000AF4FBF4F8093020290930302A0930402A0
:10ECF000B093050280509041A040B04008F426CE69
:10ED0000A4CF83EB92EE62E00F94F5F140910602FE
:10ED100050910702609108027091090280E020E1A1
:10ED20000F9491F28091060290910702A09108023F
:10ED3000B091090280509F4FAF4FBF4F80930602A2
:10ED400090930702A0930802B0930902FFCD80ECD4
:10ED500092EE62E00F94F5F183E792EE60E00F949B
:10ED6000F5F18FE792EE60E00F94F5F18BE892EE0B
:10ED700060E00F94F5F189E992EE60E00F94F5F10F
:10ED800085EA92EE60E00F94F5F183EB92EE60E09D
:10ED90000F94F5F180EC92EE60E00F94F5F187ECC2
:10EDA00092EE60E00F94F5F188ED92EE60E00F9442
:10EDB000F5F18FED92EE60E00F94F5F18AEE92EEB0
:10EDC00060E00F94F5F183E093EEBDCD87EC92EE19
:10EDD00062E00F94F5F181E40F947BF282E40F94EA
:10EDE0007BF283E40F947BF284E40F947BF285E45E
:10EDF0000F947BF286E40F947BF287E40F947BF20E
:10EE000088E40F947BF28AE40F947BF28BE40F94F6
:10EE10007BF28CE40F947BF299CD88ED92EE62E068
:10EE20000F94F5F1772473948824992409C48FED05
:10EE300092EE62E00F94F5F140910A0250910B02BC
:10EE400060910C0270910D0282E020E10F9491F22A
:10EE500080910A0290910B02A0910C02B0910D02D8
:10EE600080509F4FAF4FBF4F80930A0290930B0289
:10EE7000A0930C02B0930D0269CD8AEE92EE62E08F
:10EE80000F94F5F184EE90EE60E00F94F5F18FECC5
:10EE900091EE60E00F94F5F1662477244301CC5D98
:10EEA000DE4F19821882C452D140D401C301B695F5
:10EEB000A79597958795CA5DDE4F88839983AA8326
:10EEC000BB83C652D140CC5DDE4FA881B981C4520C
:10EED000D1401196CC5DDE4FB983A883C452D14096
:10EEE000CD0162E070E00F9434F2B0E2B093C6005E
:10EEF0008091C00086FFFCCF8091C0008064809329
:10EF0000C000EDE2E093C6008091C00086FFFCCF18
:10EF10008091C00080648093C000F0E2F093C6004E
:10EF20008091C00086FFFCCF8091C00080648093F8
:10EF3000C000CA5DDE4FE880F9800A811B81C6529D
:10EF4000D140BB27A12F902F8F2D0F940DF2CA5DBA
:10EF5000DE4F8881C652D1400F940DF2B0E2FB2EF5
:10EF6000F092C6008091C00086FFFCCF8091C00067
:10EF700080648093C0000DE30093C6008091C000C0
:10EF800086FFFCCF8091C00080648093C00010E2B7
:10EF90001093C6008091C00086FFFCCF8091C00016
:10EFA00080648093C0008BBEF3012791C65DDE4F65
:10EFB0002883CA52D140A22EBB24CC24DD2408943D
:10EFC000611C711C811C911C8BBEF3018791282E42
:10EFD0003324442455240894611C711C811C911C09
:10EFE0008BBEF3013791C55DDE4F3883CB52D140E4
:10EFF0000894611C711C811C911C8BBEF30147910C
:10F00000C45DDE4F4883CC52D140ADEFEA2EAFEF66
:10F01000FA2EAFEF0A2FAFEF1A2F6E0C7F1C801E57
:10F02000911E142D032DF22CEE24EA0CFB1C0C1D5A
:10F030001D1D0F940DF220E22093C6008091C000A8
:10F0400086FFFCCF8091C00080648093C000C65DC5
:10F05000DE4F8881CA52D1400F940DF230E23093D6
:10F06000C6008091C00086FFFCCF8091C000806404
:10F070008093C000C45DDE4F8881CC52D1400F9494
:10F080000DF240E24093C6008091C00086FFFCCFA5
:10F090008091C00080648093C000C55DDE4F888190
:10F0A000CB52D1400F940DF250E25093C6008091A4
:10F0B000C00086FFFCCF8091C00080648093C000B8
:10F0C0008FEFE8168FEFF80680E0080780E018075A
:10F0D00031F484E092EE60E00F94C2F1DFC0D80119
:10F0E000C7018070907CA070B0708050904CA040A0
:10F0F000B040D1F52FEF3FE340E050E0E222F322B1
:10F1000004231523CA5DDE4FA880B980CA80DB8046
:10F11000C652D140AE0CBF1CC01ED11EAA0CBB1CD7
:10F12000CC1CDD1C8EE092EE60E00F94C2F1BB2798
:10F13000A12F902F8F2D0F940DF28E2D0F940DF285
:10F1400030E23093C6008091C00086FFFCCF8091F2
:10F15000C00080648093C0004EE34093C60080915D
:10F16000C00086FFFCCF87C08EE09EEFA0E0B0E03D
:10F17000E822F9220A231B239CE0E91694E9F90608
:10F1800090E0090790E0190709F088C0C45DDE4FE0
:10F19000A881CC52D140EA2EFF2400E010E0102FCD
:10F1A0000F2DFE2CEE24C55DDE4FB881CB52D14031
:10F1B000EB0EF11C011D111DD601C501817090706F
:10F1C000A070B070DC0199278827E80EF91E0A1F8D
:10F1D0001B1F20EF30E040E050E0A222B322C42207
:10F1E000D52241E1AA0CBB1CCC1CDD1C4A95D1F7F1
:10F1F000EA0CFB1C0C1D1D1D81E090E0A0E0B0E0BE
:10F20000282239224A225B2235E1220C331C441C7D
:10F21000551C3A95D1F7E20CF31C041D151D57013E
:10F220006801AA0CBB1CCC1CDD1C85E192EE60E0E1
:10F230000F94C2F1C801AA27BB270F940DF2BB2778
:10F24000A12F902F8F2D0F940DF28E2D0F940DF274
:10F2500090E29093C6008091C00086FFFCCF809121
:10F26000C00080648093C000AEE3A093C60080918C
:10F27000C00086FFFCCF8091C00080648093C000F6
:10F28000C601AA27BB270F940DF2BB27AD2D9C2DDD
:10F290008B2D0F940DF28A2D0F940DF20F94DCF14B
:10F2A000CC5DDE4FE881F981C452D140F99709F471
:10F2B0004DCBF4E0EF2EF12C012D112D6E0C7F1CA7
:10F2C000801E911EF2CD83E093EE62E00F94F5F183
:10F2D0008AE192EE60E00F94C2F18091C00087FF56
:10F2E000FCCF1091C6001F751093C6008091C0001E
:10F2F00086FFFCCF8091C00080648093C0000F9493
:10F30000DCF1812F81548A3108F036C1163409F4BA
:10F3100095C0173490F4133409F44EC0143430F40B
:10F320001134F1F0123409F01DC130C0143409F465
:10F3300059C0153409F016C16BC01A3409F4C4C0A1
:10F340001B3438F4173409F48FC0183409F00AC19B
:10F35000A1C01B3409F4D2C01C3409F003C1E8C0B9
:10F360008FEF81B90DC082B1809582B980E090E0C5
:10F37000E0EDF7E03197F1F70196883C9105C1F790
:10F380008091C00087FFEFCF12B8EFC08FEF84B934
:10F390000DC085B1809585B980E090E0E0EDF7E0A3
:10F3A0003197F1F70196883C9105C1F78091C00033
:10F3B00087FFEFCF15B8D9C08FEF87B90DC088B1DF
:10F3C000809588B980E090E0E0EDF7E03197F1F7C3
:10F3D0000196883C9105C1F78091C00087FFEFCF6F
:10F3E00018B8C3C08FEF8AB90DC08BB180958BB9A7
:10F3F00080E090E0E0EDF7E03197F1F70196883C8E
:10F400009105C1F78091C00087FFEFCF1BB8ADC059
:10F410008FEF8DB90DC08EB180958EB980E090E0F0
:10F42000E0EDF7E03197F1F70196883C9105C1F7DF
:10F430008091C00087FFEFCF1EB897C08FEF80BBD1
:10F440000DC081B3809581BB80E090E0E0EDF7E0F6
:10F450003197F1F70196883C9105C1F78091C00082
:10F4600087FFEFCF11BA81C08FEF83BB0DC084B38C
:10F47000809584BB80E090E0E0EDF7E03197F1F714
:10F480000196883C9105C1F78091C00087FFEFCFBE
:10F4900014BA6BC08FEF809301010FC080910201FD
:10F4A00080958093020180E090E0E0EDF7E03197F5
:10F4B000F1F70196883C9105C1F78091C00087FF64
:10F4C000EDCF1092020151C08FEF809304010FC065
:10F4D0008091050180958093050180E090E0E0ED4A
:10F4E000F7E03197F1F70196883C9105C1F78091DB
:10F4F000C00087FFEDCF1092050137C08FEF8093DA
:10F5000007010FC08091080180958093080180E079
:10F5100090E0E0EDF7E03197F1F70196883C910536
:10F52000C1F78091C00087FFEDCF109208011DC088
:10F530008FEF80930A010FC080910B01809580931B
:10F540000B0180E090E0E0EDF7E03197F1F70196F4
:10F55000883C9105C1F78091C00087FFEDCF1092E4
:10F560000B0103C085E292EEEEC98091C00087FFD7
:10F57000FCCF8091C600EAC988E392EEE4C98CE131
:10F5800091EEE1C988249924933011F1943028F444
:10F59000913089F09230B8F408C0953061F195301F
:10F5A000F0F0963009F048C043C02B3109F042C951
:10F5B00091E06BE13FC96227C15DDE4F2883CF52E6
:10F5C000D14092E037C9B22FA0E0622793E032C960
:10F5D000822F90E0A82BB92B622794E02BC92E3004
:10F5E00009F039C3622795E0C05DDE4F19821882A9
:10F5F000C053D1401FC9E1E0F0E0EC0FFD1FC05D3A
:10F60000DE4F08811981C053D140E00FF11F2083E4
:10F610000F5F1F4FC05DDE4F19830883C053D14079
:10F6200062270A171B0709F005C9D80196E002C92D
:10F63000261709F010C303C0973009F0FBC87724E0
:10F640009981933109F412C19431C8F4963009F4C8
:10F65000D8C0973050F4923009F406C1933009F4C1
:10F660006DC0913009F059C253C0913109F477C08F
:10F67000923108F0BBC0903109F04FC2F5C098310B
:10F6800009F487C0993150F4953109F4EFC09531F0
:10F6900008F4C6C1963109F040C2C2C19A3109F4DA
:10F6A0006CC09A3108F491C09B3109F45BC09D3164
:10F6B00009F033C29D81903359F48F81882311F46E
:10F6C0009EE11CC0813011F091E018C098E916C08D
:10F6D000892F807591F0903539F4E0E0F0E089E011
:10F6E0008093570094910AC0983539F4E3E0F0E034
:10F6F00089E080935700949101C090E01A821B82A8
:10F700008D818C831D829E831F8227E030E009C299
:10F710001A8288E08B8381E48C8386E58D8382E581
:10F720008E8389E48F8383E5888780E589878FE5E9
:10F730008A8782E38B872BE030E0F3C18A818139AD
:10F7400041F0823941F0803911F48FE005C080E04A
:10F7500003C082E001C08AE01A828B8344C0772410
:10F76000739482C08D81882311F48EE12CC0813086
:10F7700011F081E028C088E926C01A82E1E0F0E0BB
:10F7800089E08093570084918B831C8224E030E0D1
:10F79000C8C18B81803589F48C81883039F4E2E0EE
:10F7A000F0E089E08093570084910DC0E0E0F0E044
:10F7B00089E080935700849106C0E3E0F0E089E09F
:10F7C0008093570084911A82DFCF8D81836C99E0FA
:10F7D000E1E0F0E0082E90935700E89507B600FCB2
:10F7E000FDCF1A821B8223E030E09BC180EC8A832C
:10F7F000CE5CDE4F188219821A821B82C253D1401E
:10F800008EC18A8190E0A0E0B0E0582F44273327D2
:10F8100022278B8190E0A0E0B0E0DC0199278827C7
:10F82000282B392B4A2B5B2B8D8190E0A0E0B0E098
:10F83000282B392B4A2B5B2B8C8190E0A0E0B0E089
:10F84000BA2FA92F982F8827282B392B4A2B5B2BCF
:10F85000220F331F441F551FC05EDE4F288339839C
:10F860004A835B83C052D1401A8259C13A81C95C34
:10F87000DE4F3883C753D140CA5CDE4F1882C6536F
:10F88000D1408B81C82EDD24CA5CDE4F488159816E
:10F89000C653D140C42AD52A933109F082C0CE5C28
:10F8A000DE4F88819981AA81BB81C253D1408050AB
:10F8B000904CA340B04030F583E0CE5CDE4FE88052
:10F8C000F9800A811B81C253D140F70100935B008C
:10F8D00080935700E89507B600FCFDCFCE5CDE4F65
:10F8E000088119812A813B81C253D14000501F4FAA
:10F8F0002F4F3F4FCE5CDE4F088319832A833B8313
:10F90000C253D140C05EDE4F488159816A817B81FC
:10F91000C052D140DE011B9631E08C9111962C91A2
:10F9200011971296C75CDE4F2883C953D140C85C3B
:10F93000DE4F1882C853D14090E0C85CDE4FE881AA
:10F94000F981C853D1408E2B9F2B0C01FA01609393
:10F950005B0030935700E89511244E5F5F4F6F4F67
:10F960007F4F0EEFE02E0FEFF02ECE0CDF1CC114F8
:10F97000D10499F685E0C05EDE4F088119812A81A5
:10F980003B81C052D140F80120935B008093570027
:10F99000E89507B600FCFDCF81E180935700E8951C
:10F9A00035C0C05EDE4F88819981AA81BB81C0527B
:10F9B000D140B695A795979587957C018601ABE0D8
:10F9C000AA2EB12CAC0EBD1E0BC0D5016D915D01F0
:10F9D000C7010F947FFE0894E11CF11C01501040F8
:10F9E0000115110591F7A60160E070E0440F551F65
:10F9F000661F771FC05EDE4FE880F9800A811B8199
:10FA0000C052D1404E0D5F1D601F711F1A82C05E33
:10FA1000DE4F488359836A837B83C052D1407FC0C5
:10FA2000FA80C55CDE4FF882CB53D140C65CDE4F16
:10FA30001882CA53D1408B81C82EDD24C65CDE4FAC
:10FA400008811981CA53D140C02AD12A1A828981DA
:10FA5000BE016D5F7F4F843121F59601C05EDE4FA0
:10FA6000E880F9800A811B81C052D1400BBFF701A9
:10FA700087919691DB018C9311969C936E5F7F4FDB
:10FA8000D801C7010296A11DB11DC05EDE4F88835B
:10FA90009983AA83BB83C052D14022503040F1F6F3
:10FAA00036C0C05EDE4F288139814A815B81C052F9
:10FAB000D1400894C108D108760100E010E0089414
:10FAC000C11CD11C0894E11CF11C011D111DE20E8A
:10FAD000F31E041F151F21BDBB27A52F942F832FB5
:10FAE00082BD2F5F3F4F4F4F5F4FF89A80B5DB01CC
:10FAF0008D93BD012E153F054007510761F7C05E8C
:10FB0000DE4F288339834A835B83C052D1409601FC
:10FB10002D5F3F4FFB01108204C080EC8A8322E0FE
:10FB200030E08BE18093C6008091C00086FFFCCF5F
:10FB30008091C00080648093C000C15DDE4FF88179
:10FB4000CF52D140F093C6008091C00086FFFCCF19
:10FB50008091C00080648093C000432F3093C60022
:10FB60008091C00086FFFCCF8091C00080648093AC
:10FB7000C000922F2093C6008091C00086FFFCCF6A
:10FB80008091C00080648093C0008EE08093C600A6
:10FB90008091C00086FFFCCF8091C000806480937C
:10FBA000C00065E1C15DDE4FE880CF52D1406E25D7
:10FBB00069276427FE01319610C090819093C6009A
:10FBC0008091C00086FFFCCF31968091C000806498
:10FBD0008093C0006927215030402115310569F715
:10FBE0006093C6008091C00086FFFCCF8091C0006A
:10FBF00080648093C00085B1805885B9772081F4F6
:10FC0000C15DDE4F0881CF52D1400F5FC15DDE4F35
:10FC10000883CF52D14090E0A0E0B0E00D941AF4F8
:10FC200027982F9880E090E020ED37E0F901319798
:10FC3000F1F7019684369105C9F700008091C00064
:10FC40008D7F8093C00081E180935700E895EE2777
:10FC5000FF270994FFCF90E00D941AF497FB092E2B
:10FC600007260AD077FD04D02ED006D000201AF443
:10FC7000709561957F4F0895F6F7909581959F4F08
:10FC80000895A1E21A2EAA1BBB1BFD010DC0AA1FDD
:10FC9000BB1FEE1FFF1FA217B307E407F50720F0F5
:10FCA000A21BB30BE40BF50B661F771F881F991F70
:10FCB0001A9469F760957095809590959B01AC01B9
:10FCC000BD01CF010895AA1BBB1B51E107C0AA1FAC
:10FCD000BB1FA617B70710F0A61BB70B881F991FED
:10FCE0005A95A9F780959095BC01CD010895F99991
:10FCF000FECF92BD81BDF89A992780B50895262F31
:10FD0000F999FECF1FBA92BD81BD20BD0FB6F89400
:0EFD1000FA9AF99A0FBE01960895F894FFCF63
:040000033000E000E9
:00000001FF
